:100000000A128A110C280134FE00030EF0000A08BF
:10001000F1000A168A11D72C0A128A110F288313AD
:10002000C230FD001430FE001030FF00A03084000C
:100030000A128A11F1270A128A116D30FD00083068
:10004000FE000030FF006A3084000A128A11F12796
:100050000A128A110A128A1103200A128A11FB005D
:1000600083160313C201C301C401C501C601C70140
:10007000C801C90183120313E301E401E501E601AC
:10008000E701E801E901F901FA0183010A128A1581
:100090006A2A83120313DE000A168A1184260A12C2
:1000A0008A113330831203136B06031D5828592815
:1000B0002B2A0A168A11B0230A128A115030831291
:1000C0000313A0009130A1008030A2000A168A110B
:1000D000A4240A128A117A0883120313D80058073D
:1000E000A03E840083130008A000840A0008840353
:1000F000A1008630A2000A168A11A4240A128A11CD
:100100004A3083120313A0009130A100C030A20036
:100110000A168A11A4240A128A11C630F8000A307D
:10012000F2000030F300831203136908D800D901EC
:100130005808F4005908F5000A168A111B260A12FD
:100140008A117208303E0A168A11C1230A128A11D6
:10015000C730F8000A30F2000030F30083120313B6
:100160006908D800D9015808F4005908F5000A16A2
:100170008A11C2250A128A117208303E0A168A11A3
:10018000C1230A128A11C830F8003A300A168A11BF
:10019000C1230A128A11C930F8000A30F200003077
:1001A000F300831203136708D800D9015808F4003C
:1001B0005908F5000A168A111B260A128A117208BC
:1001C000303E0A168A11C1230A128A11CA30F80079
:1001D0000A30F2000030F300831203136708D800DE
:1001E000D9015808F4005908F5000A168A11C225E9
:1001F0000A128A117208303E0A168A11C1230A12A5
:100200008A11FF3083120313EB0033308312031380
:10021000DA00BB30D900DF30D800D80B0D29D90B5C
:100220000D29DA0B0D290A168A11B0230A128A1138
:10023000AE3083120313A0009030A1008030A200E2
:100240000A168A11A4240A128A1128308312031371
:10025000A0009130A100C030A2000A168A11A42487
:100260000A128A11213083120313A0009030A100DA
:10027000D030A2000A168A11A4240A128A1183120D
:1002800003136908D800D9015808F2005908F3008F
:100290003C30F4000030F5000A168A1156240A1288
:1002A0008A118312031367087207E30000300318F2
:1002B00001307307E4006408E6006308E5006508A0
:1002C000F2006608F3000030F31BFF30F400F50085
:1002D00001300A128A15A7200A128A1175088312A2
:1002E0000313B1007408B0007308AF007208AE00C9
:1002F0003E30AD00EB30AC008530AB001F30AA00C3
:100300000A128A1130240A128A11831203132D084B
:10031000C7002C08C6002B08C5002A08C4000A1212
:100320008A1175270A128A1183120313450883164E
:100330000313C70083120313440883160313C60074
:10034000831203136508F2006608F3000030F31B04
:10035000FF30F400F50001300A128A15A7200A12B6
:100360008A11750883120313B1007408B000730872
:10037000AF007208AE003D30AD00F530AC00C230C9
:10038000AB008F30AA000A128A1130240A128A1197
:10039000831203132D08C7002C08C6002B08C500C4
:1003A0002A08C4000A128A1175270A128A118312B8
:1003B0000313450883160313C5008312031344086F
:1003C00083160313C400831203136508F200660842
:1003D000F3000030F31BFF30F400F50001300A1287
:1003E0008A15A7200A128A11750883120313B10017
:1003F0007408B0007308AF007208AE003E30AD0064
:10040000D730AC000A30AB003D30AA000A128A1186
:1004100030240A128A11831203132D08C7002C08F6
:10042000C6002B08C5002A08C4000A128A117527C5
:100430000A128A1183120313450883160313C3009B
:1004400083120313440883160313C2008312031399
:100450009101121507151F305E06031D302A312A3F
:10046000352A121107114430EC006908D800D9016F
:100470005808F2005908F3003C30F4000030F50051
:100480000A168A1156240A128A1183120313670866
:100490007207E5000030031801307307E6000830EA
:1004A0007A020318542A552AC42A831603134608CD
:1004B000831203136302D800831603134708031C37
:1004C000470A831203136402D90059086602031D08
:1004D0006B2A58086502031C6E2A6F2A7B2A683033
:1004E000A0009130A1008A30A2000A168A11A4242B
:1004F0000A128A11742B83160313460983120313FD
:10050000D80083160313470983120313D900D80AAE
:100510000319D90A831603134208831203135802DE
:10052000DA00831603134308031C430A83120313E0
:100530005902DB0063085A07DC0064080318640AE8
:100540005B07DD005D086602031DA82A5C086502E2
:10055000031CAB2AAC2AB82A5630A0009130A10067
:100560008A30A2000A168A11A4240A128A11742B56
:100570004430A0009130A1008A30A2000A168A11EE
:10058000A4240A128A11742B08307A06031DC92A82
:10059000CA2A572B6508F2006608F300F401F5013A
:1005A00000300A128A15A7200A128A1175088312D0
:1005B0000313CF007408CE007308CD007208CC007E
:1005C0006308F2006408F300F401F50100300A1238
:1005D0008A15A7200A128A11750883120313CB000B
:1005E0007408CA007308C9007208C8006308F200E2
:1005F0006408F300F401F50100300A128A15A720FF
:100600000A128A11750883120313B1007408B0002E
:100610007308AF007208AE003E30AD00CC30AC00C5
:10062000CC30AB00CD30AA000A128A1130240A1255
:100630008A11831203132D08C7002C08C6002B084B
:10064000C5002A08C4000A168A1132240A128A1127
:10065000831203134708D3004608D2004508D1008F
:100660004408D0000A128A1503200A128A11031CBA
:100670003A2B3B2B492B563083120313A0009130A9
:10068000A1008A30A2000A168A11A4240A128A1133
:10069000742B443083120313A0009130A1008A30E0
:1006A000A2000A168A11A4240A128A11742B093096
:1006B0007A06031D5C2B5D2B692B4430A000913022
:1006C000A1008A30A2000A168A11A4240A128A11F3
:1006D000742B6830A0009130A1008A30A2000A1665
:1006E0008A11A4240A128A11C630F8000A30F200D6
:1006F0000030F300831203136908D800D9015808A9
:10070000F4005908F5000A168A111B260A128A11EC
:100710007208303E0A168A11C1230A128A11C730A4
:10072000F8000A30F2000030F30083120313690866
:10073000D800D9015808F4005908F5000A168A11A2
:10074000C2250A128A117208303E0A168A11C12384
:100750000A128A11C830F8003A300A168A11C123E9
:100760000A128A11C930F8000A30F2000030F30092
:10077000831203136708D800D9015808F4005908F8
:10078000F5000A168A111B260A128A117208303ED9
:100790000A168A11C1230A128A11CA30F8000A30D7
:1007A000F2000030F300831203136708D800D90168
:1007B0005808F4005908F5000A168A11C2250A12D1
:1007C0008A117208303E0A168A11C1230A128A1150
:1007D000831203136908031DEE2BEF2B2F2C6708E0
:1007E000031DF32BF42B2F2C0A168A11B0230A12A7
:1007F0008A1183120313071187140030A000903070
:10080000A1008030A2000A168A11A4240A128A11BB
:10081000513083120313A0009030A100C030A20019
:100820000A168A11A4240A128A114D308312031366
:10083000DA001930D9004F30D800D80B1D2CD90B55
:100840001D2CDA0B1D2C831203138710EC01EC0A0C
:100850001130EB000A168A11B0230A128A1108001F
:10086000831203132D088039B7002D08B200320718
:10087000BD00AC1F3C2C3D2C3E2C3D143D08031903
:10088000422C432C522C3D0A031D472C482C502C43
:100890000030AD000030AC000030AB000030AA00EA
:1008A000AC175A2C0030AD000030AC000030AB006B
:1008B0000030AA0031088039FF007F08B7063108F0
:1008C000B2003207B800B01F662C672C682C3814B1
:1008D000380803196C2C6D2C7C2C380A031D712CE4
:1008E000722C7A2C0030B1000030B0000030AF0024
:1008F0000030AE00B017842C0030B1000030B000E2
:100900000030AF000030AE0038080319882C892C65
:100910008E2C3D08031D8D2C8E2C972C0030AD00A5
:100920000030AC000030AB000030AA00742F2A0861
:10093000F20030080A168A117B240A128A11730801
:1009400083120313C3007208C2004208B200B3014D
:10095000B401B5013508BC003408BB003308BA0047
:100960003208B9004308B200B301B401B50135083B
:10097000C1003408C0003308BF003208BE002B0895
:10098000F2002F080A168A117B240A128A117308B2
:1009900083120313C3007208C2004208B200B301FD
:1009A000B401B5013208B907330803110318013E39
:1009B0000319DB2CBA07340803110318013E03198D
:1009C000E22CBB07350803110318013E0319E92C7B
:1009D000BC074308B200B301B401B5013208BE0739
:1009E000330803110318013E0319F72CBF0734081D
:1009F00003110318013E0319FE2CC007350803112B
:100A00000318013E0319052DC1072C08F2002E081A
:100A10000A168A117B240A128A117308831203139F
:100A2000C3007208C2004208B200B301B401B501AC
:100A30003208B907330803110318013E0319212DA9
:100A4000BA07340803110318013E0319282DBB0708
:100A5000350803110318013E03192F2DBC07430865
:100A6000B200B301B401B5013208BE073308031167
:100A70000318013E03193D2DBF0734080311031865
:100A8000013E0319442DC007350803110318013E28
:100A900003194B2DC1070830B2000310B90DBA0D70
:100AA000BB0DBC0DB20B4D2D2B08F2002E080A1603
:100AB0008A117B240A128A11730883120313C3005C
:100AC0007208C2004208B2004308B300B401B50185
:100AD0003208B907330803110318013E0319712DB9
:100AE000BA07340803110318013E0319782DBB0718
:100AF000350803110318013E03197F2DBC072A088E
:100B0000F2002F080A168A117B240A128A11730830
:100B100083120313C3007208C2004208B2004308E4
:100B2000B300B401B5013208B90733080311031843
:100B3000013E03199C2DBA07340803110318013E26
:100B40000319A32DBB07350803110318013E031930
:100B5000AA2DBC070830B2000310B90DBA0DBB0DA9
:100B6000BC0DB20BAC2D2A08F2002E080A168A1111
:100B70007B240A128A11730883120313C3007208BC
:100B8000C2004208B2004308B300B401B501320804
:100B9000B907330803110318013E0319D02DBA0712
:100BA000340803110318013E0319D72DBB0735087C
:100BB00003110318013E0319DE2DBC072B08F200B8
:100BC00030080A168A117B240A128A1173088312CC
:100BD0000313C3007208C2004208B2004308B30006
:100BE000B401B5013208BE07330803110318013EF2
:100BF0000319FB2DBF07340803110318013E031925
:100C0000022EC007350803110318013E0319092EEF
:100C1000C1072C08F2002F080A168A117B240A1239
:100C20008A11730883120313C3007208C2004208BA
:100C3000B2004308B300B401B5013208BE0733085F
:100C400003110318013E0319262EBF0734080311B0
:100C50000318013E03192D2EC00735080311031890
:100C6000013E0319342EC1072C08F20030080A1681
:100C70008A117B240A128A11730883120313C3009A
:100C80007208C2004208B2004308B300B401B501C3
:100C900008300310B20DB30DB40DB50DFF3E031DAA
:100CA000492E3208BE07330803110318013E031909
:100CB0005A2EBF07340803110318013E0319612E91
:100CC000C007350803110318013E0319682EC10738
:100CD0003908B2003A08B3003B08B4003C08B5003C
:100CE00018300310B50CB40CB30CB20CFF3E031D4E
:100CF000712E3208BE07330803110318013E031991
:100D0000822EBF07340803110318013E0319892EF0
:100D1000C007350803110318013E0319902EC107BF
:100D20000830B2000310B90DBA0DBB0DBC0DB20BEB
:100D3000922E3D083807B200B301B30D3208823E4F
:100D4000C20033080318013EFF3EC300C42E013029
:100D5000B2000310BE0DBF0DC00DC10DB20BA92E08
:100D6000BC1FB32EB42EB52E3E140130B2000310BA
:100D7000B90DBA0DBB0DBC0DB20BB72EFF30C207BB
:100D80000318C30AFF30C307C01FC72EC82EA72EE3
:100D9000B801BC1FCC2ECD2EE92EFF303905B20094
:100DA000FF303A05B300FF303B05B4007F303C050F
:100DB000B50035083404330432040319E02EE12E63
:100DC000E42EB801B80AE92E3E1CE72EE82EE92EE3
:100DD000E12E38080319ED2EEE2E1F2F0130BE072D
:100DE000003003180130BF07003003180130C0077E
:100DF000003003180130C107411CFF2E002F1F2FA8
:100E00003E08B2003F08B3004008B4004108B500F6
:100E10000130B600350DB50CB40CB30CB20CB60BEA
:100E20000A2F3508C1003408C0003308BF0032085B
:100E3000BE000130C2070318C30A0030C3074308CD
:100E4000803AFF0080307F02031D282FFF304202CE
:100E5000031C2B2F2C2F372F7F3083120313C1003D
:100E60008030C0000030BF000030BE00682F831209
:100E700003134308803AFF0080307F02031D422F96
:100E8000013042020318452F462F522F00308312A3
:100E90000313C1000030C0000030BF000030BE00AE
:100EA000B701682F831203134208BD00FF30BE054F
:100EB000FF30BF057F30C0050030C1053D1C612FEC
:100EC000622F632FC0173D08B2000310320CC1001F
:100ED0003708FF007F08C1044108AD004008AC009E
:100EE0003F08AB003E08AA0008000310831203135A
:100EF000460D470DF7007708031D7F2F802F892FA0
:100F00000030C7000030C6000030C5000030C4000B
:100F1000EC2F4408C8004508C9004608CA00470825
:100F2000CB001F300310CB0CCA0CC90CC80CFF3E01
:100F3000031D922F4808F600C617FF30C405FF3086
:100F4000C505FF30C6050030C7059630F702F71F0C
:100F5000AA2FAB2FC52F7708803A973E0318B12FE1
:100F6000B22FB32F802F01300310C70CC60CC50C55
:100F7000C40CFF3E031DB42F0130FF007F08F707AC
:100F8000031DC32FC42FB32FDC2F20307702031C87
:100F9000CA2FCB2FD72F802F0130C8000310C40DCC
:100FA000C50DC60DC70DC80BCE2F0130F70277084F
:100FB000031DDB2FDC2FCC2F76080319E02FE12F48
:100FC000EC2FC409C509C609C709C40A0319C50A13
:100FD0000319C60A0319C70A08007E088A007F0899
:100FE00082000A128A11ED270A128A118000840AEF
:100FF00004087D0603190034FF0A0319FE0AF12FC5
:101000000134113401340030831203134C05D40031
:1010100000304D05D50080304E05D6007F304F059D
:10102000D7005708560455045404031D18281928DE
:1010300021280030CF000030CE000030CD0000303D
:10104000CC0000305005D40000305105D500803070
:101050005205D6007F305305D70057085604550473
:101060005404031D342835283D280030D3000030B7
:10107000D2000030D1000030D000CF1F40284128DE
:1010800065280030D4000030D5000030D600803014
:10109000D7004C08D4024D08031C4D0F502851288E
:1010A000D5024E08031C4E0F56285728D6024F086B
:1010B000031C4F0F5C285D28D7025708CF00560845
:1010C000CE005508CD005408CC00D31F68286928ED
:1010D0008D280030D4000030D5000030D60080309C
:1010E000D7005008D4025108031C510F78287928E2
:1010F000D5025208031C520F7E287F28D6025308BF
:10110000031C530F84288528D7025708D30056089C
:10111000D2005508D1005408D0008030CF0680306E
:10112000D30653084F02031D9F2852084E02031D89
:101130009F2851084D02031D9F2850084C02031898
:10114000A228A328A5280310A628031408008312A8
:101150000313A40024080319AE28AF28C328F51FE1
:10116000B228B328C3287209A6007309A70074091E
:10117000A8007509A900A60A0319A70A0319A80A55
:101180000319A90ACB287508A9007408A8007308D8
:10119000A7007208A6007508740473047204031D86
:1011A000D228D328DC280030F5000030F4000030CD
:1011B000F3000030F20060299630A500EC280130E1
:1011C000FF007F08A50701300310A90CA80CA70C8D
:1011D000A60CFF3E031DE428FE302905031DF1285F
:1011E000F228DF280E290130FF007F08A507013013
:1011F000A607003003180130A7070030031801309C
:10120000A807003003180130A90701300310A90C0A
:10121000A80CA70CA60CFF3E031D0629FF302905CC
:10122000031D13291429F32820290130A5020130B8
:10123000A0000310A60DA70DA80DA90DA00B19293C
:10124000A81B232924292A29023025020318292929
:101250002A29152925182D292E293629FF30A605DA
:10126000FF30A7057F30A805FF30A9050310A50CA6
:101270002508A000A101A201A30118300310A00DB0
:10128000A10DA20DA30DFF3E031D3E292008A604BB
:101290002108A7042208A8042308A9042408031984
:1012A000522953295829F51F562957295829A91772
:1012B0002908F5002808F4002708F3002608F200A2
:1012C000080083120313A70011306B06031D692960
:1012D0006A2973290A168A11B0230A128A15FF3067
:1012E00083120313EB0037302706031D7829792971
:1012F00089290A168A11B0230A128A150130FF00C3
:101300007F08FA070C307A06031D87298829892966
:10131000FA01313083120313A0009030A100803015
:10132000A2000A168A11A4240A128A15C030F800F5
:101330002A300A168A11C1230A128A150A307A0243
:101340000318A329A429E4297A0883120313A5000A
:101350002507A03E840083130008A000840A00082B
:101360008403A100C130A2000A168A11A4240A1223
:101370008A157A0883120313A5002507A23E84006C
:1013800083130008A000840A00088403A1009130A0
:10139000A2000A168A11A4240A128A157A08831256
:1013A0000313A5002507A43E840083130008A000B2
:1013B000840A00088403A100D130A2000A168A1111
:1013C000A4240A128A15692A0A307A06031DE9291B
:1013D000EA29282A7A0883120313A5002507A03ECC
:1013E000840083130008A000840A00088403A1007D
:1013F000C130A2000A168A11A4240A128A157A089A
:1014000083120313A5002507A23E8400831300085E
:10141000A000840A00088403A1009130A2000A16EB
:101420008A11A4240A128A15831603132008831232
:101430000313A00083160313210883120313A100D2
:10144000D130A2000A168A11A4240A128A15692A28
:101450000B307A06031D2D2A2E2A692A7A08831258
:101460000313A5002507A03E840083130008A000F5
:10147000840A00088403A100C130A2000A168A1160
:10148000A4240A128A158316031320088312031357
:10149000A00083160313210883120313A1009130C7
:1014A000A2000A168A11A4240A128A1583160313AD
:1014B000220883120313A000831603132308831248
:1014C0000313A100D130A2000A168A11A4240A1223
:1014D0008A1508000A168A11D6230A128A15603066
:1014E00083120313A0009030A1008130A2000A16DD
:1014F0008A11A4240A128A15173083120313A0003C
:101500009130A100C430A2000A168A11A4240A1244
:101510008A15413083120313A0009030A10091304E
:10152000A2000A168A11A4240A128A15DF2A0030A2
:1015300083160313CD000030CC002730CB001030D1
:10154000CA00013083120313DF000030E0000030D6
:10155000E1000030E2005F0883160313CA02831221
:1015600003136008031C600FB62AB92A83160313FD
:10157000CB02831203136108031C610FC02AC32A24
:1015800083160313CC02831203136208031C620F39
:10159000CA2ACD2A83160313CD028312031383169E
:1015A00003134A0A031DDE2A4B0A031DDE2A4C0AD6
:1015B000031DDE2A4D0A031DDE2ADF2AA12A01307F
:1015C0000A168A1115250A128A152F3A031DE92ACF
:1015D000EA2A972A0A168A11B0230A128A150A16CD
:1015E0008A11EF260A128A1501300A168A1115256A
:1015F0000A128A1583160313D0001030CE0027304C
:10160000CF000130CE020030031CCF03CF024E0AC0
:10161000031D0E2B4F0A031D0E2B0F2B012B993090
:101620005006031D142B152B212B831203136C035F
:10163000031D1B2B1C2B212B0230EC002230EB0056
:10164000B22B9930831603135006031D282B292B28
:10165000652B0230831203136C06031D302B312BD4
:10166000652B0330EC000A168A11B0230A128A1582
:101670007D3083120313A0009030A1008030A200BF
:101680000A168A11A4240A128A15A230831203139F
:10169000A0009030A100C030A2000A168A11A42434
:1016A0000A128A15E53083120313A0009030A100BE
:1016B0009030A2000A168A11A4240A128A150A126E
:1016C0008A15CE230A128A15B22B2F3083160313E4
:1016D0005006031D6C2B6D2B7A2B443083120313A1
:1016E0006C06031D742B752B7A2B0430EC0012153D
:1016F0000715B22BB22B8316031350080A128A1552
:1017000061210A128A15F42A8316031350080A1657
:101710008A1163270A128A15F42A2F3083160313BD
:101720005006031D942B952B9C2B0430831203131E
:10173000EC003330EB00F42A1F305006031DA12BC0
:10174000A22BCA2B83120313EC01EC0A1130EB001D
:10175000F42A8316031350080A128A1149200A1228
:101760008A15F42A831203136C08DF00E001600875
:10177000003A0319BC2BF42A5F08013A03197B2BAA
:10178000033A0319842B013A03198D2B073A0319E5
:10179000A92BF42AF42A0A128A110C28712D83121B
:1017A0000313E9012930E7009F2D83120313E90198
:1017B0002130E7009F2D83120313E9012D30E7004C
:1017C0009F2D7908F200F3017308003A0319E92B01
:1017D0009F2D7208003A0319CF2B013A0319D52B1C
:1017E000033A0319CF2B013A0319DB2B073A0319EC
:1017F000DB2B9F2D83120313E9013230E7009F2D6D
:1018000083120313E9012B30E7009F2D831203138A
:10181000E9013930E7009F2D7908F200F3017308E0
:10182000003A0319142C9F2D7208003A0319FA2B61
:10183000013A0319002C033A0319FA2B013A031950
:10184000062C073A0319062C9F2D83120313E90176
:101850001A30E7009F2D83120313E9011F30E700C0
:101860009F2D7908F200F3017308003A0319392C0F
:101870009F2D7208003A0319252C013A0319252CD3
:10188000033A0319252C013A03192B2C073A0319A3
:101890002B2C9F2D83120313E901E90A1030E70076
:1018A0009F2D7908F200F3017308003A0319592CAF
:1018B0009F2D7208003A03194A2C013A03194A2C49
:1018C000033A03194A2C013A03194A2C073A03191F
:1018D0004A2C9F2D83120313E901E90A2430E70003
:1018E0009F2D7908F200F3017308003A0319792C4F
:1018F0009F2D7208003A03196A2C013A03196A2CC9
:10190000033A03196A2C013A03196A2C073A03199E
:101910006A2C9F2D83120313E9016E2C7908F200C3
:10192000F3017308003A0319962C9F2D7208003AB0
:1019300003192B2C013A03192B2C033A03192B2CD6
:10194000013A03198A2C073A03198A2C9F2D831216
:101950000313E9011D30E7009F2D7908F200F30120
:101960007308003A0319B52C9F2D7208003A031929
:10197000A72C013A0319A72C033A0319A72C013A03
:101980000319A72C073A0319A72C9F2D2E30831279
:101990000313E700E9019F2D83120313E90135309A
:1019A000E7009F2D83120313E901E90AE7019F2D48
:1019B0007908F200F3017308003A0319E02C9F2D17
:1019C0007208003A0319CC2C013A0319C62C033AC9
:1019D0000319CC2C013A0319D22C073A0319D22C43
:1019E0009F2D83120313E9011230E7009F2D83120C
:1019F0000313E9011430E7009F2D7908F200F30189
:101A00007308003A0319052D9F2D7208003A031937
:101A1000F72C013A0319F12C033A0319F72C013A78
:101A20000319F72C073A0319F72C9F2D8312031380
:101A3000E9010630E7009F2D7908F200F3017308F1
:101A4000003A0319242D9F2D7208003A0319162D10
:101A5000013A0319162D033A0319162D013A0319F9
:101A6000162D073A0319162D9F2D83120313E90132
:101A70004E2C153083120313E700CA2C7908F200AC
:101A8000F3017308003A0319462D9F2D7208003A9E
:101A90000319392D013A0319352D033A0319392D4C
:101AA000013A0319252C073A0319252C9F2DFA2BEF
:101AB0007908F200F3017308003A0319602D9F2D95
:101AC0007208003A0319572D013A0319FA2B033A09
:101AD0000319FA2B013A0319FA2B073A0319FA2BC7
:101AE0009F2D7A08F200F3017308003A0319792D4B
:101AF0009F2D7208003A0319E12B013A03190C2CAF
:101B0000033A0319312C013A0319512C073A0319EE
:101B1000712C013A03198E2C033A0319AD2C013AAA
:101B20000319D82C0F3A0319FD2C013A03191C2D67
:101B3000033A03193E2D013A0319582D9F2D080031
:101B40008312031323088039F2002308A800280712
:101B5000F400A21FAC2DAD2DAE2D74147408031922
:101B6000B22DB32DC32D740A031DB72DB82DC02D72
:101B70000030A3000030A2000030A1000030A0001F
:101B8000A217A301CB2D0030A3000030A20000302B
:101B9000A1000030A00027088039F3007308720606
:101BA0000319D32DD42DD52D72172708A800280787
:101BB000F300A61FDC2DDD2DDE2D73147308031931
:101BC000E22DE32DF32D730A031DE72DE82DF02DF3
:101BD0000030A7000030A6000030A5000030A400AF
:101BE000A617A701FB2D0030A7000030A60000308B
:101BF000A5000030A400740873020318002E012E03
:101C0000272E721F042E052E092E8030FF007F081C
:101C1000F2067408F5007308F4007508F300200854
:101C2000F5002408A0007508A4002108F500250887
:101C3000A1007508A5002208F5002608A200750875
:101C4000A6002308F5002708A3007508A700F501E2
:101C50007308A800A9012908AB0074082802AA008B
:101C6000031CAB032B08803AFF0080307F02031D6A
:101C70003B2E1A302A02031C3E2E3F2E7A2E831250
:101C800003132308220421042004031D482E4A2E96
:101C900001304B2E0030F5000030A3000030A200D0
:101CA0000030A1000030A0007308F400802E751CE5
:101CB0005A2E5B2E642E750883120313A80003109E
:101CC000280C0138F500662E0310F50C831203135F
:101CD000201C6B2E6C2E6D2EF5170130A800230DE5
:101CE000A30CA20CA10CA00CA80B6F2E0130FF00BE
:101CF0007F08F40773087402031C7F2E802E572E72
:101D0000721B832E842ED12E7408031D882E892EDB
:101D1000942E003083120313A3000030A200003081
:101D2000A1000030A000FF2F831203132408A00796
:101D3000250803110318013E03199F2EA107260849
:101D400003110318013E0319A62EA2072708031149
:101D50000318013E0319AD2EA307231CB02EB12E8C
:101D6000872F751CB42EB52EBC2E7508A800031045
:101D7000280C0138F500BE2E0310F50C201CC12ED6
:101D8000C22EC32EF5170130A800230DA30CA20C00
:101D9000A10CA00CA80BC52E0130FF007F08F40792
:101DA000872F831203132308803AFF002708803A05
:101DB0007F02031DE52E26082202031DE52E2508BD
:101DC0002102031DE52E240820020318E82EE92E27
:101DD000412FFF30A800FF30A900FF30AA00FF30DC
:101DE000AB002408AC002508AD002608AE0027088B
:101DF000AF002008AC022108031C210F002F012F87
:101E0000AD022208031C220F062F072FAE02230863
:101E1000031C230F0C2F0D2FAF022C08A8072D0831
:101E200003182D0F142F152FA9072E0803182E0F96
:101E30001A2F1B2FAA072F0803182F0AAB072B08EE
:101E4000A3002A08A2002908A1002808A0008030C9
:101E5000FF007F08F206F509F50A7508031D312F0A
:101E6000322F4F2F0130A007003003180130A10797
:101E7000003003180130A207003003180130A30717
:101E80004F2F2408A0022508031C250FA1022608B5
:101E9000031C260FA2022708031C270FA3022308F6
:101EA000220421042004031D562F572F832F750869
:101EB000031D5B2F5C2F832F0030A3000030A20096
:101EC0000030A1000030A000FF2F0130A800031057
:101ED000A00DA10DA20DA30DA80B672FF51F712F4B
:101EE000722F732F2014751C762F772F7A2F0314DF
:101EF000F50D7C2F0310F50D74080319802F812F29
:101F0000832F0130F402A21F862F872F652FF30144
:101F1000F51F8B2F8C2F9A2F75087F390319912F5E
:101F2000922F952FF301F30A9A2F201C982F992FA7
:101F30009A2F922F730803199E2F9F2FD32F0130B2
:101F4000A007003003180130A1070030031801304A
:101F5000A207003003180130A307231CB02FB12FB4
:101F6000D32F2008A8002108A9002208AA002308CE
:101F7000AB000130AC002B0DAB0CAA0CA90CA80CCB
:101F8000AC0BBB2F2B08A3002A08A2002908A10034
:101F90002808A000740A0319CE2FCF2FD32F0130A9
:101FA000FF007F08F407740A0319D72FD82FDD2FFD
:101FB0007408031DDC2FDD2FEB2F0030A300003051
:101FC000A2000030A1000030A0007408031DE92F1A
:101FD000EA2FEB2FF201741CEE2FEF2FF12FA21737
:101FE000F52F7F30FF007F08A2057408A8000310BA
:101FF000280CA300F21FFD2FFE2FFF2FA3170800B0
:10200000503472346F346734723461346D34203438
:1020100043346F346D3470346C34653474346534E7
:10202000003444344F344F34523420344934533420
:1020300020344F34503445344E342134213421344B
:10204000003435343A3453345434413452345434F3
:10205000203436343A3450344134553453344534D2
:102060000034573461347334683469346E346734FF
:102070002034503472346F346734723461346D34C8
:102080000034573461347334683469346E346734DF
:1020900020344D3461346334683469346E346534CB
:1020A0000034523465346D346F3476346534203402
:1020B00043346C346F3474346834653473340034AE
:1020C0005034723465347334733420344B344534B3
:1020D000593420343534203474346F340034573458
:1020E000613474346534723420344C34653476345D
:1020F00065346C3420343A340034503472346534EE
:10210000733473342034533477346934743463341F
:102110006834003450346F34773465347234693441
:102120006E34673420344F344E34003445346334D5
:102130006F34203463346F34743474346F346E34D9
:102140007334003453345734353420343A34203423
:102150005334543441345234543400344634753496
:102160006E346334743469346F346E343A342034EA
:102170000034413471347534613420347334743430
:102180006F347234653400345334743461346934D8
:102190006E342034773461347334683400346334FB
:1021A0006C346F3473346534203464346F346F347A
:1021B0007234003442346534643420347334683407
:1021C00065346534743473340034533457343634DE
:1021D00020343A342034533454344F34503400349F
:1021E000443465346C346934633461347434653434
:1021F00073340034573461347334683420346F34AA
:102200006E346C3479340034523469346E3473343F
:1022100065342B34443472347934003444347234A9
:10222000793420346F346E346C3479340034503463
:102230006F3477346534723420344F344E34003484
:1022400057346F346F346C3465346E347334003407
:10225000543469346D3465343A34203400345034A5
:102260006C34653461347334653400344D34653412
:102270006434693475346D340034573468346934E7
:1022800074346534733400345334503449344E3428
:1022900020340034543469346D3465343A340034B5
:1022A000503472346F3467343A3400345234493421
:1022B0004E345334453400344434613469346C341E
:1022C00079340034483465346134763479340034F8
:1022D0005734413453344834003448346934673413
:1022E000683400344134753474346F3400344C3401
:1022F0006F34773400344D34613478340034FF1B4C
:10230000892983137F1883170008840A0319FF0A99
:1023100008007F087F398A000408840A0319FF0A2D
:02232000820039
:10271C008316031306083F3886000800831603133C
:10272C008801091189100A168A116B250A168A115B
:10273C0008008312031391019210121012139212BB
:10274C001212921112118C10831603138C14FA307E
:10275C0092000800F20101300A168A11F0230A16C1
:10276C008A110430F7003D30F600F60BBB2BF70B4B
:10277C00BB2BC02B080083120313A400F2017808B2
:10278C000A168A11F0230A168A11F201F20A831230
:10279C00031324080A168A11F0230A168A1108005A
:1027AC000A168A1194230A168A110A168A118E2384
:1027BC000A168A110A168A119F230A168A118B1778
:1027CC000B1783160313871007118312031387103B
:1027DC0007110800F5007218F42BF82B8312031361
:1027EC000915FB2B83120313091175088800891432
:1027FC00A630F300F30B002C000083120313891096
:10280C001B30F4009E30F300F30B0A2CF40B0A2C53
:10281C00000008005C34913462349134F03490340C
:10282C003D349134C4349034963490342034913403
:10283C00DA349034043491340E349134FA349034C4
:10284C00B9349034723491347734913436349134C1
:10285C006D3491347B349134803083120313C7066A
:10286C004B08A3004A08A2004908A1004808A00090
:10287C004708A7004608A6004508A5004408A40080
:10288C000A128A15A0250A168A118312031323082B
:10289C00C7002208C6002108C5002008C400080093
:1028AC00F601F701721C5B2C5C2C622C7408F60789
:1028BC000318F70A7508F70701300310F40DF50D2E
:1028CC00FF3E031D632C01300310F30CF20CFF3E92
:1028DC00031D6A2C72087304031D752C762C582C5E
:1028EC007708F3007608F200080083120313A400A3
:1028FC00A001A1017208F400F5017408A20075088A
:10290C00A300241C8A2C8B2C912C2208A0070318C2
:10291C00A10A2308A10701300310A20DA30DFF3E4D
:10292C00031D922C0310A40C2408031D9E2C9F2C19
:10293C00872C2108F3002008F2000800F201831212
:10294C00031322080A168A11F0230A168A11C62CC0
:10295C00F201F20A2108FF00200884000A168A11ED
:10296C007F210A168A110A168A11F0230A168A1177
:10297C00013083120313A0070318A10A0030A1072A
:10298C00831203132108FF00200884000A168A1101
:10299C007F210A168A11003A031DD52CD62CAE2C99
:1029AC000800831203138C1CDC2CDD2C0E2D8C1CCC
:1029BC00E02CE12C0E2D8C10013083160313C8076C
:1029CC000318C90A0030C907203048064E300319D5
:1029DC004906031DF22CF32C0E2DC801C9018312DC
:1029EC00031367080319FB2CFC2CFF2C0130E702A6
:1029FC000E2D6708031D032D042D0E2D69080319D8
:102A0C00082D092D0E2D0130E9023B30E7000E2D6B
:102A1C0071088A00700E8300FE0E7E0E0900831270
:102A2C00031306083F39F2003F30720603191F2DBD
:102A3C00202D2B2D7B080319242D252D2B2DFB014F
:102A4C007208E800EA01EA0A692D3F307206031D9C
:102A5C00302D312D422D7B08031D352D362D422D69
:102A6C00FB01FB0A0F306A0203183D2D3E2D692D28
:102A7C00EA01EA0A68086A2D7B08031D462D472DDA
:102A8C00522D10306A0203184C2D4D2D522D013051
:102A9C00FF007F08EA07692D7B08031D562D572D73
:102AAC00692D10306A06031D5C2D5D2D692D3730A4
:102ABC006806031D622D632D692D0130FF007F0810
:102ACC00EA0799306A2D3F300800C330F700CD304B
:102ADC00F600F60B6F2DF70B6F2DF20133300A1643
:102AEC008A11F0230A168A111B30F7009E30F6006B
:102AFC00F60B7E2DF70B7E2D0000F20133300A16FB
:102B0C008A11F0230A168A11A630F600F60B8C2DCA
:102B1C000000F20133300A168A11F0230A168A11CA
:102B2C00972D982D0000F2013C300A168A11F023E3
:102B3C000A168A11A630F600F60BA22D0000F2013F
:102B4C0001300A168A11F0230A168A110430F70094
:102B5C003D30F600F60BB02DF70BB02DB52DF20174
:102B6C000C300A168A11F0230A168A11A630F600C8
:102B7C00F60BBE2D00000800F701F51FC62DC72D62
:102B8C00CE2DF409F509F40A0319F50AF701F70A31
:102B9C00F31FD12DD22DD72DF209F309F20A031907
:102BAC00F30A720873040319DC2DDD2D0C2EF601CB
:102BBC00F60AEB2D01300310F20DF30DFF3E031D51
:102BCC00E12D0130FF007F08F607F31FEE2DEF2DEE
:102BDC00E02D73087502031DF52D72087402031C99
:102BEC00F82DF92DFF2D7208F4027308031CF50360
:102BFC00F50201300310F30CF20CFF3E031D002E06
:102C0C000130F602031D0B2E0C2EEF2D7708031945
:102C1C00102E112E162EF409F509F40A0319F50AD3
:102C2C007508F3007408F200080083120313A10165
:102C3C00F31F212E222E292EF209F309F20A031971
:102C4C00F30AA101A10AF51F2C2E2D2E362EF40904
:102C5C00F509F40A0319F50A0130FF007F08A106F3
:102C6C00A201A3017208730403193D2E3E2E752E8A
:102C7C00A001A00A4C2E01300310F20DF30DFF3E03
:102C8C00031D422E0130FF007F08A007F31F4F2EBB
:102C9C00502E412E01300310A20DA30DFF3E031D3B
:102CAC00512E73087502031D5D2E72087402031CED
:102CBC00602E612E682E7208F4027308031CF50353
:102CCC00F502221401300310F30CF20CFF3E031D2D
:102CDC00692E0130A002031D742E752E502E210872
:102CEC000319792E7A2E7F2EA209A309A20A0319A1
:102CFC00A30A2308F3002208F2000800831203132E
:102D0C000618892E8A2EEE2E0711121187140A1618
:102D1C008A11B0230A168A11113083120313A000F2
:102D2C009030A1008030A2000A168A11A4240A1641
:102D3C008A112F3083120313A0009130A100C030F0
:102D4C00A2000A168A11A4240A168A11CF30831203
:102D5C000313A0009030A1009030A2000A168A1133
:102D6C00A4240A168A1183120313061CBE2EBF2E2E
:102D7C00B92E0715121587100A168A11B0230A16D8
:102D8C008A11AE3083120313A0009030A100803062
:102D9C00A2000A168A11A4240A168A11283083125A
:102DAC000313A0009130A100C030A2000A168A11B2
:102DBC00A4240A168A11213083120313A000903028
:102DCC00A100D030A2000A168A11A4240A168A1176
:102DDC00080083120313A8012808803EF800FF3076
:102DEC000A168A11C1230A168A110330831203139F
:102DFC00A7008A30A6005530A500A50B032FA60B03
:102E0C00032FA70B032F0130FF007F08831203133E
:102E1C00A80710302802031C142F152FF22E8A300D
:102E2C00A0009030A100C330A2000A168A11A4247D
:102E3C000A168A11413083120313A0009030A100AE
:102E4C009130A2000A168A11A4240A168A11831240
:102E5C000313A9012908D03EF800FF300A168A1185
:102E6C00C1230A168A11033083120313A7008A3078
:102E7C00A6005530A500A50B412FA60B412FA70B83
:102E8C00412F0130FF007F0883120313A907103074
:102E9C002902031C522F532F302F0D308312031392
:102EAC00A700AF30A600B530A500A50B5B2FA60B75
:102EBC005B2FA70B5B2F622F080083120313A70055
:102ECC0022306B06031D6B2F6C2F752F0A168A117F
:102EDC00B0230A168A11FF3083120313EB0037302C
:102EEC002706031D7A2F7B2F8B2F0A168A11B023EE
:102EFC000A168A110130FF007F08F90705307906A0
:102F0C00031D892F8A2F8B2FF9016F308312031326
:102F1C00A0009030A1008030A2000A168A11A424CF
:102F2C000A168A11C030F8002A300A168A11C123F9
:102F3C000A168A11790883120313A5002507B83ED7
:102F4C00840083130008A000840A00088403A100F5
:102F5C00C230A2000A168A11A4240A168A1105305E
:102F6C00F2000030F3007908013EF4000030031841
:102F7C000130F5000A168A11C2250A168A11720848
:102F8C0083120313A5002507B83E840083130008A1
:102F9C00A000840A00088403A1009230A2000A1643
:102FAC008A11A4240A168A110530F2000030F300AD
:102FBC007908023EF400003003180130F5000A16BF
:102FCC008A11C2250A168A11720883120313A500EE
:102FDC002507B83E840083130008A000840A00086B
:102FEC008403A100D230A2000A168A11A4240A1666
:042FFC008A1108002E
:02400E00FB3F76
:00000001FF
